:020000040000FA
:1000000080AF0010556B00005D6B00005F6B00005F
:10001000616B0000636B0000656B00000000000076
:10002000000000000000000000000000676B0000FE
:10003000696B000000000000CFBA0000FD6F0000F7
:100040006F6B00006F6B00006F6B00006F6B000048
:100050006F6B00009D370000176900006F6B000098
:100060006F6B00006F6B00006F6B00006F6B000028
:100070006F6B00006F6B00006F6B00006F6B000018
:100080006F6B00006F6B00006F6B00006F6B000008
:100090006F6B00006F6B00006F6B00006F6B0000F8
:1000A0006F6B00006F6B00006F6B00006F6B0000E8
:1000B0006F6B00006F6B00006F6B00006F6B0000D8
:1000C0006F6B0000DFF80CD00BF0A0FA004800477F
:1000D0007704000080AF001010B50BF0D7FC044689
:1000E000AA20410708725520087220460BF0D2FC66
:1000F00010BD38B50920FE49087001208870042021
:1001000081F8B900362081F86D00012081F89C004B
:100110003621F74880F86E1080F86F1080F8701064
:1001200080F8711080F87210002180F873101E2082
:10013000EF49C1F8CC006946EEA006F04BFCEC4953
:100140000098C1F8C80041F27170C1F8C4000120E4
:1001500081F8D00000240BE0EA49E548BA3000EB12
:10016000840001600121E248C2300155601CC4B224
:10017000022CF1DB03F0D6FD0A2009F0DBFF03F0CF
:10018000D1FDD121DA4803F0D8FE0A2009F0D2FFD0
:10019000D121D74803F0D1FE0A2009F0CBFF4FF45C
:1001A0007A7009F0C7FF38BD30B585B0002503F07F
:1001B000B9FDD122CE49002003F077FF142003F0CF
:1001C0001AF9D122CA49002003F06FFF0920C8495B
:1001D0000870012088700846D0F8CC0010B91E20A5
:1001E000C1F8CC00C248D0F8C8502946684606F08D
:1001F00033FC002408E040F2CF11BD48B53000EBDD
:1002000044000180601CC4B2022CF4DB05B030BD98
:1002100003E04FF4FA6009F08DFFBB480078002836
:10022000F7D10DE04FF47A7009F084FF601CC4B27E
:10023000AF48D0F8CC00A04202D805F0E5FC00247D
:10024000F0E703E040F2DC5009F074FFAE480078BC
:100250000028F7D105E004F02FFE41F2883009F0C4
:1002600069FFF8E71FB5A2488278A8A168460BF09D
:100270005DFC684603F06DFA4FF4E13004F03EF89F
:1002800004F0D0F80A2009F055FF04F063F90A20C1
:1002900009F050FF04F0B9F841F2883009F04AFF44
:1002A0000BF0F4FB044600209749087020460BF041
:1002B000F1FB0AE004F0E6FE022009F03BFF05F046
:1002C00050F84FF47A7009F035FFF3E727E0944CCB
:1002D00000BF03F049FA20703C28FAD1641C0025C5
:1002E00011E003F041FA064604F8016B3E2E08D1F6
:1002F00004E0002004F8010B681CC5B2302DF8DBC7
:1003000003E0681CC5B2322DEBDB00BF85480068F6
:1003100008F02EFA82498348006808F099FBD6E776
:1003200008B54FF4FA7009F005FF11E06A460021A4
:100330007C48006808F0C4FA00207B4908707848BF
:1003400000F038F9041E03DD2146754803F0F3F987
:10035000ECE7002408E001207449085504212046F8
:1003600003F000FC601CC4B2022CF4DB142009F082
:10037000E1FE4FF4C87003F071FA0FE06B4841786A
:10038000012003F00EFCC82009F0D4FE6748017874
:10039000002003F006FCC82009F0CCFEEEE7FFF7D2
:1003A00003FF03F034F96248C10648600320087077
:1003B0001020604908605DE00BF068FB0446AA204D
:1003C000410708725520087220460BF063FB5A481B
:1003D0000078012809D15948806B40F480005749C2
:1003E00088630020544908700BE05348007840B9F6
:1003F0005248C06B40F480005049C86301204E4908
:1004000008704E48406DC0F3802078BB4B48C06BED
:1004100040F400004949C8634FF4FA6002F0EBFF72
:100420004648806B40F400004449886302E00120A4
:1004300002F0E1FF4148406DC0F300300028F6D1E2
:100440004FF47A7002F0D7FF3C48C06B40F40000D4
:100450003A49C8634FF4FA6002F0CDFF3748806B29
:1004600040F400003549886306F074FB4FF4FA70DD
:1004700009F060FEA0E710B53048006A40F4800043
:100480002E4908620846006A40F44010086206F0EF
:10049000C3FC0BF038FB07F04CFA294800684FF416
:1004A0007A71B0FBF1F4204606F0BBFD0123254A2A
:1004B0000021AFF2151009F088FA0223224A002128
:1004C000AFF2711009F081FA0323204A0021AFF244
:1004D000AF1009F07AFA04231D4A0021AFF213206D
:1004E00009F073FA05231B4A0021AFF2872033E09D
:1004F000390300103132302E37382E36322E313853
:10050000000000000000F0C1080000103C4250252F
:100510003032755F52455345545F4F4B3E0D0A00D4
:10052000C10200100C00001001000010200000109B
:1005300048E8010028C102400000001000800920A6
:1005400024020010080600100808001008280010F7
:10055000082C0010084C001009F037FA06230D4A49
:100560000021AFF2213009F030FA07230A4A0021B6
:10057000AFF2633009F029FA002008F00FF90749BB
:1005800008600846006808B900BFFEE707F0BBFA3C
:10059000002010BD086C0010088C00100C0000102A
:1005A0007047704770477047704770477047704793
:1005B0007047704701B5B0B000202690FEA130987A
:1005C0000AF048FA002801F01984FCA13098C01CF8
:1005D0000AF040FA58B1FB4880780246FAA125900B
:1005E00030980BF0A3FA80B2269001F048BCF54891
:1005F00080780A2190FBF1F030303099C978884238
:10060000F3D1F04880780A2190FBF1F201FB12004F
:100610003030309909798842E7D1309840795F28A5
:10062000E3D1EDA13098801D0AF014FA38B3309868
:10063000007B3E2823D13098C07A30383099897AAF
:10064000303901EB810100EB4100C0B22D902D98B3
:10065000642812DADB492D9888700121D948801C62
:1006600003F06BFCD74880780246DDA125903098D6
:100670000BF05CFA80B22690B7E701F0F7BADDA183
:100680003098801D0AF0E6F900286AD03098C07AC8
:100690003E2803D03098007C3E2862D13098807A82
:1006A0003F280CD1C7488078C64B6D330246D2A193
:1006B000259030980BF03AFA80B2269095E700200A
:1006C0002F902EE0DDE92F010A30085C30280EDB88
:1006D000DDE92F010A30085C5A2808DCDDE92F012A
:1006E0000A300A5CB7486D302F99425415E0C8486B
:1006F0000078012804D11822C649C74804F07DF8C3
:10070000B04880780246C5A1259030980BF00EFACB
:1007100080B22690269831B000BD2F98401CC0B200
:100720002F902F980628CDDB0021A64880F8731063
:1007300007216D3003F001FCB548007830B1182274
:10074000BB49B54804F059F80020E4E79D4880789B
:100750000246B8A1259030980BF0E8F980B22690B7
:1007600043E7B9A13098801D0AF074F9002876D0CB
:100770003098007C3E2803D03098807E3E286ED191
:100780003098C07B3F280CD18E4880788D4BDB1C85
:100790000246B0A1259030980BF0C8F980B226909F
:1007A00023E730208749C8703821864801713921F4
:1007B0004171312181713621C171382101720020CE
:1007C0002F900AE0DDE92F010F30095C23AA2F9852
:1007D00011542F98401CC0B22F902F980B28F1DB9A
:1007E00046208DF8970000202F900CE023A92F9829
:1007F00011F810204000C01D7249C91C0A542F98DE
:10080000401CC0B22F902F980628EFDB00202F90BD
:100810000EE02F984000401C23A90A5C2F9840004E
:10082000801D6849C91C0A542F98401CC0B22F90E3
:100830002F980628EDDB0021624841757448007846
:1008400008B1002067E75F488078024687A12290C0
:1008500030980BF06BF980B22690C6E6FFE789A1CD
:100860003098801D0AF0F6F8002872D03098407B4E
:100870003E280DD03098C07D3E2809D0309890F8A1
:1008800023003E2804D0309890F82F003E2860D1F5
:10089000002022903098007B3F2836D17BA13098F1
:1008A0000BF044F980B2269000202F9019E02F9889
:1008B00000EB800101EBC00142487530084402465C
:1008C00074A1219023A80BF031F922990844C0B2F9
:1008D000229023A930980AF0B1F82F98401CC0B29A
:1008E0002F90384890F874102F988142DFDC2299BD
:1008F0002698084480B226902698801C80B22690C4
:1009000059A130980AF09AF8D7E13098C07D3E2876
:1009100004D101202B4981F8740012E0309890F83E
:1009200023003E2804D10220264981F8740008E003
:10093000309890F82F003E2803D10320214981F8F8
:10094000740001211F48743003F0F7FA00202F9043
:1009500096E1B3E131212F9800EB4002C2EB401247
:100960001848163081542F9800EB4002C2EB401219
:10097000144816301044417030212F9800EB40028B
:10098000C2EB40120F481630104481702F9800EBD4
:100990004002C2EB40120B4816301044C1702F9831
:1009A00000EB4002C2EB40120648163010440171C1
:1009B00044212F9870E000003C4250005F414452B7
:1009C0005F3F3E00390300103C4250253032755FD6
:1009D0004F4B3E0D0A0000004144525F00000000F2
:1009E0003C4250253032755F4144525F4F4B3E0DC3
:1009F0000A000000505744003C4250253032755FD9
:100A000047534D5F5057445F25733E0D0A00000069
:100A100001000010E1010010A40200103C4250252A
:100A20003032755F5057445F45523E0D0A0000005A
:100A3000240100103C4250253032755F5057445F0E
:100A40004F4B3E0D0A00000047534D5F4144445256
:100A5000000000003C4250253032755F47534D5F27
:100A6000414444525F25733E0D0A00003C4250252C
:100A70003032755F47534D5F414444525F4F4B3EA8
:100A80000D0A000050484F4E455F000050484F4E41
:100A9000453A000025735F0000EB4002C2EB4012B4
:100AA000F6481044417139212F9800EB4002C2EB07
:100AB0004012F2481044817131212F9800EB40021E
:100AC000C2EB4012ED481044C17136212F9800EB63
:100AD0004002C2EB4012E9481044017238212F98BD
:100AE00000EB4002C2EB4012E44810444172302156
:100AF0002F9800EB4002C2EB4012E0481044817591
:100B00002F9800EB4002C2EB4012DC481044C17544
:100B10002F9800EB4002C2EB4012D84810440176F7
:100B200038212F9800EB4002C2EB4012D34810440A
:100B3000417630212F9800EB4002C2EB4012CF48A3
:100B4000104481762F9800EB4002C2EB4012CB4854
:100B50001044C17600212F9800EB4002C2EB4012F6
:100B6000C6481044017700202E9016E02F9800EB25
:100B700040012E980C3000EB81013098415C2F9899
:100B800000EB800202EBC002BC485F3002442E98AA
:100B900011542E98401CC0B22E902E980B28E5DBE5
:100BA00046212F9800EB800202EBC002B3485F3071
:100BB0001044C17200212F9800EB800202EBC002AA
:100BC000AE485F30104401732F9800EB800101EBB9
:100BD000C001AA485F3008440D21219003F0ADF90F
:100BE00000202E9019E02F9800EB800101EBC0014E
:100BF000A2485F3001442E9811F810102F9800EB96
:100C00004002C2EB40129D4802442E9840000B3037
:100C100011542E98401CC0B22E902E980628E2DB6C
:100C200000202E901AE02F9800EB800101EBC0010C
:100C300092485F3001442E984000401C095C2F9878
:100C400000EB4002C2EB40128C4802442E98400058
:100C50000A3011542E98401CC0B22E902E980628AF
:100C6000E1DB2F9800EB4001C1EB401183480844C1
:100C70001D21219003F061F92F98401CC0B22F90E4
:100C80007E48163890F874102F9881423FF762AE74
:100C90007B48007830B120227A497B4803F0ADFDD3
:100CA000002038E5754816388078024677A12190F3
:100CB00030980AF03BFF80B2269096E478A13098F5
:100CC000801D09F0C7FE00285ED03098807B3F2849
:100CD00011D16A48163890F89C002590674816385C
:100CE00080782490024671A1259B30980AF01EFF5F
:100CF00080B2269079E43098807B30281FD1002084
:100D00005E49163981F89C0001215C48863003F069
:100D100014F95B48007830B120226A495A4803F040
:100D20006CFD0020F7E4554816388078024666A12D
:100D3000259030980AF0FAFE80B2269055E430985B
:100D4000807B31281FD101204C49163981F89C0045
:100D500001214A48863003F0F0F84948007830B164
:100D600020225849484803F048FD0020D3E4434876
:100D700016388078024654A1259030980AF0D6FEA5
:100D800080B2269031E478E455A13098801D09F0B6
:100D900061FEC8B35448C06B40F400005249C863B8
:100DA0004FF4FA6009F0C6F94F48806B40F4000038
:100DB0004D49886302E0012009F0BCF94A48406DC2
:100DC000C0F300300028F6D14FF47A7009F0B2F980
:100DD0004548C06B40F400004349C8634FF4FA60D3
:100DE00009F0A8F94048806B40F400003E49886350
:100DF00022481638807802463CA1259030980AF0A7
:100E000095FE80B2269037E4FFE73DA13098801D23
:100E100009F020FE80B33448C06B40F40000324932
:100E2000C8634FF4FA6009F085F92F48806B40F4ED
:100E300000002D49886302E0012009F07BF92A486F
:100E4000406DC0F300300028F6D14FF47A7009F0FD
:100E500071F92548C06B40F400002349C8634FF482
:100E6000FA6009F067F92048806B40F400001E49E1
:100E7000886305F06FFE21E446E000004F03001098
:100E8000010000103F010010A40200103C42502558
:100E90003032755F50484F4E455F4F4B3E0D0A0054
:100EA000534D535F414C545F000000003C425025BD
:100EB0003032755F534D535F414C545F253031756F
:100EC0003E0D0A00850100103C4250253032755F0E
:100ED000534D535F414C545F4F4B3E0A000000009E
:100EE00047534D523E000000008009203C425025EF
:100EF0003032755F47534D525F4F4B3E0D0A000035
:100F000052455345543E0000F9A13098801D09F028
:100F1000A1FD58B1F8488078F84B0246F8A1259019
:100F200030980AF003FE80B2269019E4F8A13098B8
:100F3000083009F08FFD00287ED03098007B3E28D5
:100F40007AD1012025900020249023903098C079F8
:100F50003138C0B22C902C9801286EDC3098C07AC1
:100F60003F2814D1E448C2302C99405C30300090C6
:100F70003098C0792290E048807821900246E5A11F
:100F8000229B30980AF0D2FD80B2269094E03098EF
:100F9000C07A302803D03098C07A31287ED130987A
:100FA000C07A3038C2B2D448C2302C9942542C99FD
:100FB00008440121229002F0C0FF3098C0792290AD
:100FC000CD48807821900246D7A1229B30980AF024
:100FD000ADFD80B22690C84890F8D00001286BD1B2
:100FE00002E0012009F0A6F8D44800780128F8D0E2
:100FF0000121D24801704FF47A7009F09BF8642007
:1010000009F098F83FE02398401C23902398052886
:1010100031D300202390CA48C06B40F40000C84977
:10102000C8634FF4FA6009F085F8C548806B40F456
:101030000001C348816304E03FE03CE0012009F087
:1010400079F8BF48406DC0F300300028F6D14FF466
:101050007A7009F06FF8BA48C06B40F40000B849E4
:10106000C8634FF4FA6009F065F8B548806B40F446
:101070000001B348816325A805F0EEF824904FF4F1
:10108000FA6009F057F824980028BCD0AD480078E1
:1010900048B10020AB490870202200E00AE0AA49CC
:1010A000AA4803F0AAFB642009F044F80020A349F1
:1010B000087001E067E666E6FFE5A5A13098083014
:1010C00009F0C8FC00287DD03098407C3E2803D031
:1010D0003098007B3E2875D1012025900020249077
:1010E00023903098C0793138C0B22C902C980128C8
:1010F00069DC3098C07A2D2803D03098C07A2B282C
:101100007ED13098407B30383099097B303901EB03
:10111000810100EB4100C0B22D902D98632803DCC3
:101120002D988DF8A0000DE03098C079229072487B
:1011300080782190024687A1229B30980AF0F6FC25
:1011400080B226903098007C30383099C97B303995
:1011500001EB810100EB4100C0B22D902D98632876
:1011600003DC2D988DF8A1000DE03098C079229015
:10117000614880782190024676A1229B30980AF03F
:10118000D5FC80B226909DF8A000632837DC9DF83E
:10119000A100632833DC3098C07A2D2826D19DF831
:1011A000A100199009F0CFFF6F4A704BCDE91A01E9
:1011B00009F0C9FECDE91E019DF8A0001B9009F0C1
:1011C000C2FF01E0E3E0E0E0CDE91C01DDE91E2320
:1011D00009F012FE81F00041CDE920010AF068F823
:1011E0004549BA312C9A01EB820108604248BA3075
:1011F0002C9900EB81000421229002F09EFE00E079
:10120000C2E03D4890F8D000012861D102E0012001
:1012100008F090FF494800780128F8D0012047499C
:101220000870642008F086FF3AE0239805282FD341
:10123000002023904248C06B40F400004049C8633E
:101240004FF4FA6008F076FF3D48806B40F40000F0
:101250003B49886302E0012008F06CFF3848406D8C
:10126000C0F300300028F6D14FF47A7008F062FF26
:101270003348C06B40F400003149C8634FF4FA6052
:1012800008F058FF2E48806B40F400002C4988631A
:1012900025A805F039F924904FF4FA6002F0ABF874
:1012A00024980028C1D04FF47A7008F043FF2548F5
:1012B000007838B100202349087020222C492348A7
:1012C00003F09BFA642008F035FF00201B490870EA
:1012D0003098C0792290084880782190024625A154
:1012E000229B30980AF022FC80B226904EE000004B
:1012F000565F3F3E000000003903001030D500006B
:101300003C4250253032755F5625733E0D0A000071
:101310005F575F003C4250253032755F5225635F56
:10132000575F25633E0D0A003C4250253032755F01
:101330005225635F575F4F4B3E0D0A000D020010B0
:10134000008009200100001062010010A4020010BA
:101350005F505F003C4250253032755F5225635F1D
:10136000505F45523E0D0A007B14AE47E17A843F40
:10137000850100103C4250253032755F5225635F75
:10138000505F4F4B3E0D0A00FDE4FCE495E4FEA1E6
:101390003098801D09F05EFB002874D03098C07A28
:1013A0003E2870D13098807A3F2865D1F84840783F
:1013B00038B9F8A130980AF0B9FB80B22690269887
:1013C0006FE4F348407805282CDDF14840782F90F1
:1013D00020E02F9800EB800040F2DC5101EBC000D0
:1013E000272203A9029002F060FE0DF12B0109A84B
:1013F0009DF8322003ABCDE900200291E8A10DA8B1
:101400002F9A0AF093FB0DA802F0A3F92F98401E23
:10141000C0B22F90DE484078001F2F998842D8DD57
:1014200000203EE4DA4840782F9020E02F9800EB2F
:10143000800040F2DC5101EBC000272203A902909A
:1014400002F033FE0DF12B0109A89DF8322003AB09
:10145000CDE900200291D2A10DA82F9A0AF066FBD7
:101460000DA802F076F92F98401EC0B22F902F9849
:101470000028DBDC002014E43098807A432853D124
:1014800000202F9008E050E000210DAA2F98115461
:101490002F98401CC0B22F902F982828F4DB0020F2
:1014A0002F902CE0272000902F9800EB800040F236
:1014B000DC5101EBC000C1170C9000EB9160C0F350
:1014C0008F100A902F9800EB800040F2DC5101EB66
:1014D000C000C1170B9000EB916081110B98A0EB3D
:1014E000811080B200230DAA09900A9902F04FFCE6
:1014F000012008F01FFE2F98401CC0B22F902F989B
:101500003228CFDD0020A24948700121A048401CAC
:1015100002F013FD9E4880780246AAA10C903098F4
:101520000AF004FB80B2269008E4ABA13098801D3D
:1015300009F090FA002872D0A94800680021219093
:1015400009F0DCFE0ED82B208DF89000A44800682E
:10155000A449209009F0E0FB219009F01AFE80B226
:10156000279012E02D208DF890009D4800680146DC
:101570001F90002009F0CAFB9A49209009F0CCFB8B
:10158000219009F006FE80B22790BDF89C004FF430
:101590007A7190FBF1F03030C0B28DF89100BDF857
:1015A0009C0090FBF1F201FB1200642190FBF1F032
:1015B0003030C0B28DF892002E208DF89300BDF827
:1015C0009C0090FBF1F201FB12000A2190FBF1F06C
:1015D0003030C0B28DF89400BDF89C0090FBF1F261
:1015E00001FB12003030C0B28DF8950000208DF85C
:1015F00096007B4840680021219009F07FFE0FD8BB
:101600002B208DF88800764840687649209009F0B4
:1016100083FB219009F0BDFD80B2279013E05FE0CD
:101620002D208DF888006E48406801461F900020EC
:1016300009F06CFB6B49209009F06EFB219009F0DA
:10164000A8FD80B22790BDF89C004FF47A7190FB02
:10165000F1F03030C0B28DF88900BDF89C0090FBED
:10166000F1F201FB1201642091FBF0F03030C0B2C6
:101670008DF88A002E208DF88B00BDF89C00642127
:1016800090FBF1F201FB12000A2190FBF1F03030E7
:10169000C0B28DF88C00BDF89C0090FBF1F201FB0C
:1016A00012003030C0B28DF88D0000208DF88E0011
:1016B00022A9374890F8C30024AACDE9002002915E
:1016C000334890F8C200219031488078209002463B
:1016D00045A1219B30980AF029FA80B22690CEE3EA
:1016E00048A13098801D09F0B5F9E8B300202F908B
:1016F0001FE02D208DF8A0008DF8A7002448BA30F7
:101700002F9900EB8100006801462290002009F02B
:10171000FDFA3449239009F0FFFA249009F039FDCD
:1017200081B225AA2F9822F810102F98401CC0B221
:101730002F902F980228DCDBBDF894004FF47A71CB
:1017400090FBF1F03030C0B28DF8A100BDF89400EC
:1017500090FBF1F201FB1200642190FBF1F03030BC
:10176000C0B28DF8A20000E0A1E02E208DF8A30009
:10177000BDF8940090FBF1F201FB12000A2190FBEE
:10178000F1F03030C0B241E04C4F475F0000000044
:10179000390300103C4E4F5F4C4F473E0D0A00008E
:1017A0003C253033753E20257320503A2530317565
:1017B0002C2052313A25732C2052323A25730D0ACF
:1017C000000000003C4250253032755F4C4F475FAF
:1017D000435F4F4B3E0D0A00415F3F3E000000005B
:1017E000240000100000C8423C4250253032755F92
:1017F0002530317525735F2530317525733E0D0A0F
:1018000000000000425F3F3E000000008DF8A40091
:10181000BDF894100A2291FBF2F002FB1010303058
:10182000C0B28DF8A5005F208DF8A600BDF8960027
:101830004FF47A7190FBF1F03030C0B28DF8A8000F
:10184000BDF8960090FBF1F201FB1200642190FBC1
:10185000F1F03030C0B28DF8A9002E208DF8AA002A
:10186000BDF8960090FBF1F201FB12000A2190FBFB
:10187000F1F03030C0B28DF8AB00BDF896200A20F0
:1018800092FBF0F100FB11203030C0B28DF8AC00BB
:1018900000208DF8AD00FD48807828AB0246FCA101
:1018A000249030980AF042F980B22690E7E2FCA139
:1018B0003098801D09F0CEF8D0B1FC484069C0F3E3
:1018C000C01050B1F14880780246F9A125903098B7
:1018D0000AF02CF980B22690D1E2EC4880780246DA
:1018E000F8A1259030980AF021F980B22690C6E23E
:1018F000F9A13098801D09F0ADF880B13098C07A18
:101900003F28D3D1E1488078E04B9D330246F4A1D3
:10191000259030980AF00AF980B22690AFE2F5A13E
:101920003098083009F096F8F0B33098807C3E2863
:101930003AD13098C079303830998979303901EB13
:10194000810100EB4100C0B224902498012877DB8C
:101950002498022874DC3098407C30383099C97B58
:10196000303901EB810100EB4100C0B22590309885
:10197000807B2B281CD101222498401EC349B13101
:1019800001EB40032498401E1131085C1A5424983E
:10199000401E113901EB40022498401E1131085CB1
:1019A00010440121239000E04CE002F0C6FA1FE051
:1019B0003098807B2D281AD100222498401EB349EC
:1019C000B13101EB40032498401E1131085C1A54D8
:1019D0002498401E113901EB40022498401E113119
:1019E000085C10440121239002F0A7FA00E03DE1D9
:1019F000259842B22498401EA449AD3101EB400322
:101A00002498401E1531085C1A542498401E15393C
:101A100001EB40022498401E1531085C104401215E
:101A2000239002F08AFA9948807823900246B3A165
:101A3000249B30980AF07AF880B2269001E0FFE704
:101A400014E11CE2B3A13098801D09F003F8E0B363
:101A500000201D901C903098007C3F2814D18B48AA
:101A6000D0F8C8001D901EA81D9904F0F5FF874806
:101A7000D0F8C40003461EAAA9A11B9030980AF012
:101A800055F880B2269065E03A213098103008F081
:101A9000FFFF2390239838B32398401C2390002005
:101AA00025901EE025992398405C249024983028A6
:101AB0000CDB2498392809DC249830381C9901EB78
:101AC000810100EB41001C9007E044E024983E288F
:101AD00002D10620259000E0C8E02598401CC0B245
:101AE000259025980528DDDB68491C98C1F8C400BD
:101AF0001DA93098103004F06DFF50B363491D9854
:101B0000C1F8C80008216148C43002F016FA1EA8C6
:101B10001D9904F0A1FF5D48D0F8C40003461EAA39
:101B200085A11B9030980AF001F880B226905748A2
:101B3000D0F8C40003461EAA86A11B908D4809F068
:101B4000F5FF8C4A8CA1309809F0F0FF80B2269006
:101B500000E08BE093E189A13098801D08F07AFFC6
:101B600090B33098C07C3E2803D03098807D3E28CA
:101B700043D1002023903098807C259025983F28E1
:101B80000BD14248D0F8CC0002467FA12290309879
:101B900009F0CCFF80B226902EE00020249019E0BE
:101BA000249812303099085C2590259830280CDB59
:101BB0002598392809DC25983038239901EB8101D3
:101BC00000EB4100239001E017E04FE02498401C17
:101BD000C0B2249024980428E2DB2C492398C1F851
:101BE000CC0004212948CC3002F0A7F96CA1309830
:101BF00009F09CFF80B2269041E16FA13098801DD2
:101C000008F028FF80B33098C07B3E282DD10020FB
:101C100024903098807B259025983F280DD11B4833
:101C200090F8D0003030C0B2259065A1259A309848
:101C300009F07CFF80B2269015E02598302802D06C
:101C4000259831280FD125983038104981F8D000D7
:101C500001210E48D03002F070F95EA1309809F0F1
:101C600065FF80B226900AE1FFE700BF5EA13098D1
:101C700009F05CFF80B226905E48007818B1102110
:101C80005D4802F0E1FC2698FEF745BD39030010DF
:101C90003C4250253032755F25733E0D0A0000002E
:101CA000504F5745525F3F3E000000000080092022
:101CB0003C4250253032755F504F5745525F303EA1
:101CC0000D0A00003C4250253032755F504F574599
:101CD000525F313E0D0A0000475549445F3F3E00C8
:101CE0003C4250253032755F475549445F25733E6D
:101CF0000D0A00005F4A5553545F00003C425025D6
:101D00003032755F253032755F4A5553545F4F4B03
:101D10003E0000005345525645525F4950000000B6
:101D20003C425030315F5345525645525F49505FF7
:101D300025733A25643E00003C425030315F5345E4
:101D4000525645525F49505F25733A25645F4F4BA9
:101D50000D0A000041542B43495053544152543D05
:101D600022544350222C222573222C222564220D3A
:101D70000A000000B00000102573000043495243E0
:101D80004C455F54494D45003C425030315F43491A
:101D900052434C455F54494D455F25643E00000069
:101DA0003C425030315F434952434C455F54494DAA
:101DB000455F4F4B3E0000005553455F5443500074
:101DC0003C425030315F5553455F5443505F25636B
:101DD0003E0000003C425030315F5553455F544354
:101DE000505F4F4B3E0000003C434D445F45525214
:101DF0003E0D0A0001000010BB01001021A1309827
:101E0000401C08F027FED0B320A001F0A2FC642003
:101E100001F0F1FA012021490870FEF76AF9204823
:101E2000C06B40F400001E49C8634FF4FA6008F02C
:101E300081F91B48806B40F400001949886302E077
:101E4000012008F077F91648406DC0F300300028F3
:101E5000F6D14FF47A7008F06DF91148C06B40F478
:101E600000000F49C8634FF4FA6008F063F90C48AA
:101E7000806B40F400000A49886304F06BFE2698EA
:101E800002E70000524553554D4500003C52455372
:101E9000554D455F4F4B3E0D0A0000000D020010EE
:101EA000008009202DE9F84304467BA004F0D6FC0D
:101EB00009E0701C86B2B6F5FA6F04D179A001F082
:101EC00048FCBDE8F88304F0EEFC20702228F0D135
:101ED000012604E004F0E7FCA055701C86B2182E21
:101EE000F8DB0020E07573490868002109F006FA64
:101EF0000BD82B2020766F4908686F4908F00CFF3B
:101F0000074609F046F985B20EE02D202076694893
:101F10000168002008F0FAFE8046674908F0FCFEE0
:101F2000074609F036F985B24FF47A7095FBF0F068
:101F3000303060764FF47A7095FBF0F100FB115071
:101F4000642190FBF1F03030A0762E21E176642000
:101F500095FBF0F100FB11500A2190FBF1F03030BD
:101F600020770A2095FBF0F100FB115030306077AC
:101F70000021A1774F494868002109F0BFF90BD82B
:101F80002B20E0774B4948684B4908F0C5FE0746CF
:101F900009F0FFF885B20EE02D20E0774548416852
:101FA000002008F0B3FE8046434908F0B5FE07461E
:101FB00009F0EFF885B24FF47A7095FBF0F030300D
:101FC000C1B2202001554FF47A7095FBF0F100FB6F
:101FD0001150642190FBF1F03030C1B22120015545
:101FE0002E2122200155642095FBF0F100FB1150B9
:101FF0000A2190FBF1F03030C1B2232001550A20B4
:1020000095FBF0F100FB11503030C1B22420015596
:102010000021252001552948007884F826000A204F
:1020200008F088F809F032FD814625484078401CC8
:102030002349487027200A460090527802EB82021A
:1020400040F2DC5303EBC2084FEAE87208EB9262FD
:1020500091111B4A527802EB820203EBC207FA1776
:1020600007EB92629211A7EB821290B200232246F4
:1020700001F08DFE484609F00DFD114840783228E8
:1020800002DD00200E49487001210D48401C01F07E
:1020900054FF00BF15E7000041542B43434C4B3F16
:1020A0000D0A00004C4F47205752495445204641E5
:1020B000494C0A00240000100000C8420200001031
:1020C00039030010FD480068704770B504460D469E
:1020D0002CB9AC4201D0012070BD0020FCE70DB945
:1020E0000120F9E705E0207808B90020F4E7641C36
:1020F0006D1C207808F078FC0646287808F074FCFF
:102100008642F0D0207808F06FFC0646287808F068
:102110006BFC301AE0E770B50446204608F0C2FCBC
:10212000451C2846E64909688847061E00D170BD4F
:102130002A462146304608F05DFC3046F7E710B5E8
:102140002820DF490968884704461CB12821204619
:1021500008F069FC204610BD70B504461EE02568F5
:10216000A08900F4807020B9A06810B1A068FFF7C2
:10217000F3FFA08900F4807028B9206918B1D14913
:10218000206909688847206A18B1CE49206A096821
:1021900088472046CB49096888472C46002CDED169
:1021A00070BD2DE9F04F8BB083468A46002004466F
:1021B00005460026C44F0021884689460990012023
:1021C00008909AF800002D2802D1C04F0AF1010AA8
:1021D0009AF80000302801D10AF1010A9AF80000AB
:1021E000312822DB9AF8000039281EDC00BF1AF8DB
:1021F000011BA1F1300008F095FF0022B44BCDE99E
:1022000006012046294608F09EFECDE90401DDE9DD
:10221000062308F0F1FD04460D469AF80000302828
:1022200003DB9AF800003928E1DD9AF800002E2837
:1022300030D19AF8010030282CDB9AF801003928B7
:1022400028DC0AF1010A00BF1AF8011BA1F13000D5
:1022500008F068FF00229E4BCDE906012046294682
:1022600008F071FECDE90401DDE9062308F0C4FDA4
:1022700004460D460022944B4046494608F05DFE58
:10228000804689469AF80000302803DB9AF800005F
:102290003928D9DD9AF80000652803D09AF80000A3
:1022A000452823D10AF1010A9AF800002B2802D10F
:1022B0000AF1010A08E09AF800002D2804D14FF035
:1022C000FF3008900AF1010A08E01AF8010B3038D3
:1022D000099901EB810100EB410009909AF8000097
:1022E000302803DB9AF800003928EEDDDDE908210B
:1022F00001FB02F008F016FF42464B46CDE9000113
:1023000008F07AFD02460B46CDE902010020704933
:102310000AF0FCFB22462B46CDE906013046394641
:1023200008F011FECDE90401DDE9062308F00BFEFB
:1023300004460D46CBE906452046294608F03DFFF8
:10234000CBF814000320CBF80C0050460BB0BDE8CE
:10235000F08F2DE9F05F8146D9E90645D9F81400E0
:1023600008F0E0FE074622462B4608F0E6FD21F085
:10237000004182460022574B08F06AFF1BD8564A9C
:10238000564B2046294608F063FF14D80022544BD0
:102390002046294608F074FF0DD8152048490968E1
:1023A00088470646002E5FD04EA13046D9F814204B
:1023B00009F0BCFB58E040204149096888470646BF
:1023C000002E51D0204629460AF0B4F8074622468E
:1023D0002B4608F0B2FD21F00041824600223D4B21
:1023E00008F036FF0FD825F0004127463E4A3F4B04
:1023F000384608F02DFF06D222462B463CA1304637
:1024000009F094FB30E025F0004127463A4A3B4B67
:10241000384608F01DFF07D325F000410022384B55
:10242000384608F02DFF06D222462B4635A130460D
:1024300009F07CFB18E00022334B2046294608F0C7
:1024400082FD074608F0D8FE6421B0FBF1F201FBE3
:10245000120A2046294608F0B0FE834653465A46E3
:102460002AA1304609F062FB3046BDE8F09F2DE915
:10247000FC4781460F467C1C00263878222804D071
:102480000E4807600020BDE8FC8704E014F8011B3B
:102490005C2900D1641C2078222804D0207810B157
:1024A000701C061EF2D1701C0549096888478046D9
:1024B000B8F1000F2ED10020E5E700001000001059
:1024C00014000010180000100000F03F0000F0BFE2
:1024D000000024400000B03C0000C0FFFFFFDF41CF
:1024E0000000E0C12564000044F3C2E4E4E9634C69
:1024F000252E3066000000008DEDB5A0F7C6B03E79
:1025000065CDCD41256500000000594025642E258C
:10251000303275007C1C4546B6E020785C2804D03B
:1025200014F8010B05F8010BAEE0641C207872284A
:1025300018D006DC622809D066280BD06E287DD121
:102540000CE0742812D07528F9D113E0082005F8A2
:10255000010B97E00C2005F8010B93E00A2005F829
:10256000010B8FE00D2005F8010B8BE0092005F829
:10257000010B87E001AAF7A1601C08F0B3FA241D43
:102580000198B0F55C4F03D30198B0F5604F01D3CB
:10259000019800B976E00198B0F5584F22D3019820
:1025A000B0F55C4F1ED260785C2802D1A078752807
:1025B00000D067E06A46E7A1E01C08F093FAA41D8A
:1025C0000098B0F55C4F03D30098B0F5604F00D38E
:1025D00058E00198C0F30901009861F39F2000F5CD
:1025E0008030019004260198802801D201260AE05B
:1025F0000198B0F5006F01D2022604E00198B0F511
:10260000803F00D203263544012E2BD0022E1DD050
:10261000032E0DD0042E2ED1019800F0BF0040F003
:102620008001681E0546017001988009019000BF75
:10263000019800F0BF0040F0800100E01EE0681E3D
:102640000546017001988009019000BF019800F0D3
:10265000BF0040F08001681E0546017001988009A6
:10266000019000BFBC48805D01990843C1B2681E5B
:102670000546017000BF00BF354403E0207805F82F
:10268000010B00BF00BF641C2078222803D02078F3
:1026900000287FF442AF002028702078222800D143
:1026A000641CC9F810800420C9F80C002046EAE632
:1026B0002DE9F04707464FF000082FB9AFF2CC10D4
:1026C000FFF729FDBDE8F0873D460DE04946A3A090
:1026D00008F0DEF910B108F1010804E0B9F1200FAB
:1026E00001DA08F105086D1C95F80090B9F1000FAA
:1026F00004D008F10100B0F10008E7D108F10300AF
:1027000098490968884706460EB90020DAE734463A
:102710003D46222004F8010B47E028781F280ADDF7
:102720002878222807D028785C2804D015F8010BD7
:1027300004F8010B39E05C2004F8010B15F8011BCB
:1027400089460C2919D006DC082912D0092920D085
:102750000A2922D115E00D2917D0222905D05C299C
:102760001BD15C2004F8010B1EE0222004F8010BB1
:102770001AE0622004F8010B16E0662004F8010B51
:1027800012E06E2004F8010B0EE0722004F8010B39
:102790000AE0742004F8010B06E04A4672A12046C4
:1027A00009F0C4F9641D00BF00BF28780028B4D127
:1027B000222004F8010B002004F8010B304681E7C9
:1027C00010B504462069FFF773FF10BD00E0401C00
:1027D00020B1017811B101782029F8DD70472DE989
:1027E000F04706460C4620787B2804D060480460F9
:1027F0000020BDE8F0870620F060601CFFF7E6FFD0
:10280000044620787D2801D1601CF2E7FFF797FC91
:102810000546B060B06808B90020EAE72046FFF737
:10282000D5FF804641462846FFF721FE0746FFF7C1
:10283000CDFF04460CB90020DBE7286928620020A0
:10284000286120783A2803D0494804600020D0E766
:10285000601CFFF7BBFF80464146284600F0A9F800
:102860000746FFF7B3FF04460CB90020C1E731E08B
:10287000FFF765FC071E00D1BBE72F607D603D467A
:10288000601CFFF7A3FF814649462846FFF7EFFD8E
:102890008046FFF79BFF04460CB90020A9E7286992
:1028A00028620020286120783A2803D0304804604C
:1028B00000209EE7601CFFF789FF814649462846B5
:1028C00000F077F88046FFF781FF04460CB900203E
:1028D0008FE700BF20782C28CAD020787D2801D12E
:1028E000601C86E722480460002082E72DE9F0475B
:1028F00005460C4620785B2804D01D480460002063
:10290000BDE8F0870520E860601CFFF75FFF044624
:1029100020785D2801D1601CF2E7FFF710FC064625
:10292000A860A86808B90020EAE72046FFF74EFF34
:1029300080464146304600F03CF80746FFF746FF28
:1029400004460CB90020DBE727E0FFF7F8FB071E81
:1029500010D1D5E72534780039D50000225C080C69
:102960000A0D0900140000107525303478000000AD
:102970001000001037607E603E46601CFFF726FFA7
:1029800081464946304600F014F88046FFF71EFFA6
:1029900004460CB90020B3E700BF20782C28D4D01F
:1029A00020785D2801D1601CAAE7F7480460002068
:1029B000A6E770B505460C460CB9002070BD042290
:1029C000F2A1204608F07EF818B90220E860201D28
:1029D000F4E70522EFA1204608F074F818B90020AA
:1029E000E860601DEAE70422ECA1204608F06AF8DE
:1029F00020B90120E8606861201DDFE720782228E7
:102A000004D121462846FFF732FDD7E720782D284C
:102A100005D02078302807DB2078392804DC2146CF
:102A20002846FFF7BEFBC9E720785B2804D1214682
:102A30002846FFF75BFFC1E720787B2804D12146B9
:102A40002846FFF7CCFEB9E7CF4804600020B5E781
:102A50002DE9F04780460D4616460024FFF76FFB30
:102A600007460020C84908600FB9BDE8F087404616
:102A7000FFF7ACFE814649463846FFF79AFF044609
:102A800024B93846FFF768FB0020EEE766B1204620
:102A9000FFF79CFE0446207830B13846FFF75CFB18
:102AA000B94804600020E0E705B12C603846DCE757
:102AB00010B50446002211462046FFF7C9FF10BD9D
:102AC0002DE9F74F88B0884616464FF00009CA46F0
:102AD0000020079007200490002508988068029045
:102AE00000270020019003E07F1C029800680290FC
:102AF00002980028F8D14FBB16B108F1030100E09D
:102B000003210846A749096888470790079818B91C
:102B100000200BB0BDE8F08F079C7B2004F8010B70
:102B200066B10A2004F8010B002503E0092004F82F
:102B3000010B6D1CA8F10100A842F7DC7D2004F810
:102B4000010B002004F8010B0798E2E7B800954953
:102B5000096888478146B9F1000F01D10020D8E704
:102B6000B8009049096888478246BAF1000F05D13C
:102B700048468D49096888470020CAE7B900484699
:102B800007F051FFB900504607F04DFF08988068E4
:102B9000029008F1010816B10498404404902DE019
:102BA0000299086AFFF784FD05904AF8250032462D
:102BB0004146029800F07EF929466D1C069049F8BE
:102BC00021000598A8B1069898B1069807F06AFF09
:102BD0008346059807F066FF0BEB0001891C16B1D0
:102BE00008F1020000E00020014404980844049029
:102BF00001E00120019002980068029002980028EC
:102C0000CED1019820B96749049809688847079090
:102C1000079808B9012001900198F0B1002510E053
:102C20005AF8250020B15AF825005F4909688847FD
:102C300059F8250020B159F825005B4909688847F3
:102C40006D1CBD42ECDB5046574909688847484631
:102C500055490968884700205BE77B210798017088
:102C60000798441C16B10A2004F8010B00202070BC
:102C700000253EE05EB10020039005E0092004F845
:102C8000010B0398401C039003984045F6DB5AF86B
:102C90002510204607F00DFF5AF8250007F002FF27
:102CA00004443A2004F8010B16B1092004F8010B82
:102CB00059F82510204607F0FCFE59F8250007F0CA
:102CC000F1FE0444781EA84202D02C2004F8010B27
:102CD00016B10A2004F8010B002020705AF82500D4
:102CE00031490968884759F825002F4909688847FC
:102CF0006D1CBD42BEDB50462B49096888474846DB
:102D00002949096888474EB1002503E0092004F8E5
:102D1000010B6D1CA8F10100A842F7DC7D2004F82E
:102D2000010B002004F8010B0798F2E62DE9F74F9C
:102D300082B083464FF0000805200190DBF8089030
:102D4000002700250020009002E07F1CD9F80090A9
:102D5000B9F1000FF9D17FB90320124909688847FA
:102D60008046B8F1000F03D010A1404607F0A1FE45
:102D7000404605B0BDE8F08FB8000A4909688847A9
:102D80000646AEB90020F4E7100000106E756C6CBA
:102D90000000000066616C73650000007472756568
:102DA0000000000014000010180000105B5D00001F
:102DB000B900304607F037FEDBF808901FE0DDE988
:102DC0000312491C484600F075F8824629466D1CDE
:102DD00046F821A0BAF1000F0DD0504607F062FE70
:102DE000801C049909B1012100E0002101440198EF
:102DF0000844019001E001200090D9F80090B9F159
:102E0000000F02D000980028D9D0009820B9FA49C4
:102E10000198096888478046B8F1000F01D1012068
:102E20000090009890B1002508E056F8250020B1E8
:102E300056F82500F149096888476D1CBD42F4DB4E
:102E40003046EE4909688847002092E75B2088F801
:102E5000000008F101040020207000251CE056F855
:102E60002510204607F025FE56F8250007F01AFE2B
:102E70000444781EA84209D02C2004F8010B0498C1
:102E800010B1202004F8010B0020207056F8250016
:102E9000DA49096888476D1CBD42E0DB3046D749F6
:102EA000096888475D2004F8010B002004F8010B35
:102EB00040465EE72DE9F04104460D4616460027E0
:102EC00014B90020BDE8F081207B07282FD2DFE86D
:102ED00000F00A1004161B202700AFF25010FFF775
:102EE0001AF9074623E0AFF25410FFF714F907462A
:102EF0001DE0AFF25810FFF70EF9074617E0204625
:102F0000FFF727FA074612E02046FFF759FC07466D
:102F10000DE0324629462046FFF708FF074606E047
:102F2000324629462046FFF7CBFD074600BF00BFCB
:102F30003846C7E710B50446012200212046FFF7B6
:102F4000B9FF10BD10B50446002211462046FFF718
:102F5000B1FF10BD01468A68002001E0401C1268E4
:102F6000002AFBD170470246906801E0491E0068C4
:102F700008B10029FADC704770B505460E46AC680A
:102F800000E024682CB13146206AFFF79EF8002843
:102F9000F7D1204670BD01604860704770B50546A6
:102FA000FFF7CDF804460CB9002070BD2822294651
:102FB000204607F01FFD00202062E06840F480708A
:102FC000E0600020606020602046EEE770B50546B6
:102FD0000E46AC6806B970BD0CB9AE6009E000E001
:102FE000246814B120680028FAD131462046FFF742
:102FF000D2FF00BFEFE770B506460D46144604B990
:1030000070BD206A18B17D49206A09688847284642
:10301000FFF781F8206221463046FFF7D7FF00BF57
:10302000EEE770B505460C462046FFF7B7FF0646AB
:1030300031462846FFF7CAFF70BD2DE9F04105462D
:103040000E4614462046FFF7A9FF07463A4631468A
:103050002846FFF7D0FFBDE8F08110B502460B46C9
:10306000916801E009685B1E09B1002BFADC09B91F
:10307000002010BD486810B1D1E900042060086844
:1030800010B1D1E9004060609068884201D10868C1
:1030900090600020086048600846EAE770B5044682
:1030A0000D4629462046FFF7D8FF0646FFF754F89D
:1030B00070BD2DE9F04105460F460026AC6801E0E1
:1030C000761C24682CB13946206AFEF7FEFF0028E2
:1030D000F6D12CB131462846FFF7BFFFBDE8F0819D
:1030E0000020FBE770B504460D4629462046FFF751
:1030F000E0FF0646FFF730F870BD2DE9F0410646C7
:103100000F461446B56801E02D687F1E0DB1002FF3
:10311000FADC0DB9BDE8F08128682060686860605D
:10312000206808B120684460B068A84201D1B4604A
:1031300001E0606804600020686028602846FFF7AE
:103140000BF800BFE6E72DE9F04105460E461746AD
:103150004FF00008AC6802E008F1010824682CB1C7
:103160003146206AFEF7B1FF0028F5D144B1304660
:10317000FEF7D1FF38623A4641462846FFF7BDFFC9
:10318000BDE8F08110B5FEF7DAFF04460CB102206D
:10319000E060204610BD10B5FEF7D1FF04460CB12B
:1031A0000120E060204610BD10B5FEF7C8FF0446C0
:1031B0000CB10020E060204610BD70B50546FEF75A
:1031C000BEFF044624B10DB1012000E00020E06004
:1031D000204670BD70B505460E46FEF7B0FF0446AA
:1031E00044B10320E060C4E906562846314607F0A2
:1031F000E4FF6061204670BD14000010180000104C
:1032000070B50546FEF79BFF04462CB10420E06034
:103210002846FEF780FF2061204670BD10B5FEF7FE
:103220008EFF04460CB10520E060204610BD10B5AD
:10323000FEF785FF04460CB10620E060204610BD75
:103240002DE9F05F81468A460025AB46FFF7E6FF91
:103250000646002410E059F8240007F063FF0746F3
:10326000FFF7B8FF05460CB9B56003E0294658469C
:10327000FFF791FEAB46641C0EB15445EBDB3046C4
:10328000BDE8F09F2DE9F05F81468A460025AB46F8
:10329000FFF7C4FF0646002410E059F8240007F0A9
:1032A000C4FF0746FFF796FF05460CB9B56003E07B
:1032B00029465846FFF76FFEAB46641C0EB15445D5
:1032C000EBDB3046BDE8F09F2DE9F0470746884626
:1032D0000025A946FFF7A2FF0646002410E007EBF1
:1032E000C400D0E900211046FFF774FF05460CB971
:1032F000B56003E029464846FFF74DFEA946641C29
:103300000EB14445EBDB3046BDE8F0872DE9F047D0
:10331000074688460025A946FFF780FF0646002499
:103320000DE057F82400FFF76BFF05460CB9B560B8
:1033300003E029464846FFF72EFEA946641C0EB15D
:103340004445EEDB3046BDE8F0872DE9F047054601
:1033500089464FF0000815B90020BDE8F087FEF758
:10336000EEFE04460CB90020F7E7E86820F4807010
:10337000E06068696061D5E90601C4E90601286971
:1033800050B12869FEF7C7FE2061206920B92046A8
:10339000FEF7E2FE0020E0E7286A50B1286AFEF757
:1033A000BAFE2062206A20B92046FEF7D5FE002032
:1033B000D3E7B9F1000F01D12046CEE7AF6816E0A0
:1033C00001213846FFF7C1FF064626B92046FEF721
:1033D000C3FE0020C1E7B8F1000F05D0C8F80060B7
:1033E000C6F80480B04601E0A660B0463F68002FF2
:1033F000E6D12046B1E770B50446FCF76DFE002526
:1034000009E0002601E0701C86B242F228308642B4
:10341000F9DB681C85B2A542F3DB70BD10B5002353
:103420000DE05C1CA3B2002105E0541CA2B2541EA6
:10343000A2B24C1CA1B241F23014A142F5DD83428C
:10344000EFDB10BD2DE9F04704460E4617469846BF
:10345000ECB11C2E1BD3254608F018FB8146A6F1C3
:103460001800E881E9892C4605F118000844A86095
:1034700005F11800286068600020A8812F61C5F858
:103480001480484608F006FB0120BDE8F087FF20C5
:10349000FBE72DE9F04105460C460027264608F0DB
:1034A000F5FA8046B089002804DD3068007828707D
:1034B000012700E00027404608F0ECFA3846BDE856
:1034C000F0812DE9F04106460D464FF0FF082DB37F
:1034D0002C4608F0DBFA0746A089002812DD206898
:1034E000007830702068401C2060A1682068884205
:1034F00002D304F118002060A089401EA0814FF083
:10350000010808E04FF00408206920B12146304648
:10351000226990478046384608F0BCFA4046BDE82C
:10352000F0812DE9F04105460E464FF0FF0835B316
:103530002C4608F0ABFA0746A089E189884211DAE7
:10354000606806706068401C6060D4E901018842D0
:1035500002D304F118006060A089401CA0814FF0E4
:10356000010809E04FF00808606928B101223146DE
:103570002046636998478046384608F08BFA4046F3
:10358000BDE8F08170B50446002534B108F07EFA3C
:103590000646A589304608F07DFA284670BD70B50C
:1035A0000446002534B108F071FA0646E589304634
:1035B00008F070FA284670BD70B504466CB1254617
:1035C00008F064FA06462C4605F118002860686089
:1035D0000020A881304608F05DFA70BD2DE9F04169
:1035E00005460E46144600BF2846FFF7D8FF07469B
:1035F00002E00A2006F09EFD2846FFF7C3FFB8420E
:10360000F7DA31462846FFF78CFFBDE8F08170B548
:103610008B48006840F008008949C439C1F8C400EB
:10362000012088498860C860874800780A2821D22C
:10363000DFE800F02005080B0E1114171A1D4FF4D7
:10364000166418E04FF4965415E04FF4165412E047
:103650004FF461540FE04FF496440CE04FF41644DD
:1036600009E04DF6C02406E04FF4614403E04FF456
:10367000E13400E000BF00BF802074490873744843
:1036800000680009B0FBF4F085B22846E91705EBA5
:103690001161090A6D4A1171E91705EB11610912EF
:1036A000A5EB012111700320114608730520486025
:1036B000872008720520012181404209920002F111
:1036C000E022C2F8001100BFAFF2EF0300224FF476
:1036D00080616048FFF7B6FEFF2801D1002070BD71
:1036E000002005F0C9FE5C4908600846006808B182
:1036F0000120F4E70020F2E738B50446214655489A
:10370000FFF70FFF08F0C2F905465048007D00F0B2
:10371000200060B14F496846FFF7D3FE9DF80000D6
:103720004A4908700846406840F002004860284650
:1037300008F0B0F938BD70B504460D4603E014F842
:10374000010BFFF7D9FF281EA5F101018DB2F6DCB0
:1037500070BD10B5044603E014F8010BFFF7CCFF71
:1037600020780028F8D110BD08B50BE03748406834
:1037700040F00100354948606A460021364800683B
:1037800005F00CFF3148007D00F001000028EDD06D
:103790002E48007800909DF8000008BDF8B508F0AC
:1037A00075F9064641E004F00E00022806D0042810
:1037B0001CD0062825D00C2832D126E0002512E0A6
:1037C00024496846FFF77DFE012804D19DF80000DA
:1037D0001E49087005E01D48406820F002001B49A2
:1037E0004860681CC5B2102DEADB1DE01A4800686D
:1037F00005F08FFF1548406820F00100134948602C
:1038000012E01248007D00900EE01348006805F0B9
:1038100080FF0E48406820F001000C49486003E03A
:103820000A48007D009000BF00BF08488068C4B20D
:1038300004F001000028B6D0304608F02BF9F8BD9E
:10384000C4C00F4000C002403903001000C0004057
:10385000280200100C8C00101C0000100146FE48CD
:10386000006840F48050FC4AC43AC2F8C400012009
:10387000FA4AD0651066506690660320F74AF8321F
:103880001060121D1060F54A10635063F448006820
:1038900040F40030F24A10601046006840F4802086
:1038A00010601046006840F4002010601046006868
:1038B00040F4801010601046006840F40010106062
:1038C0001046006840F4800010600020E54A106057
:1038D000E5480068E54AB0FBF2F0401E012242EAEA
:1038E000002040F09070DF4A106000BFDD48406863
:1038F00000F000400028F9D07047014611B10129BD
:1039000014D109E0D74A1268D94B1A40521C42F030
:103910008072D44B1A600AE0D24A1268D44B1A4023
:10392000921C42F08072CF4B1A6000E000BF00BFD3
:1039300000BFCC4A526802F00042002AF9D0C94ABE
:10394000126842F08072C74B1A6000BFC54A5268C5
:1039500002F00042002AF9D0C24A5068C0F3891030
:1039600070472DE9FC4705460C469046C149404644
:1039700007F0C4FC0BD234B1641EBF49404607F0C7
:10398000FDF9804614E000BFDFF8E88210E0BB4993
:10399000404607F0A9FC0BD2072C06D2641CB6499E
:1039A000404607F0B9F9804602E000BFDFF8CC825C
:1039B000B049404607F0A2FC0BD234B1641EAE49B8
:1039C000404607F0DBF9804614E000BFDFF8A48230
:1039D00010E0AA49404607F087FC0BD2072C06D21C
:1039E000641CA549404607F097F9804602E000BFF5
:1039F000DFF88882032C2ED3404607F016FC814660
:103A00004A460B4600209E4907F00FFB064607F08A
:103A10004FFC8046404607F008FC064608F0CEFF03
:103A20000022984BCDE9000107F08DFA814607F09E
:103A30003FFC8046E11E01EB8101480007F06DFB71
:103A40000646414607F010F9804641468E4807F089
:103A500063F9804627E0404607F0E7FB0646002270
:103A60008A4B07F0E2FA814607F022FC8046404686
:103A700007F0DBFB814608F0A1FF06460022814BE0
:103A800007F061FACDE9000107F012FC8046C4F1AD
:103A9000020101EB8101480007F03FFB0646414669
:103AA00007F0E2F88046404607F0BFFB06460022DA
:103AB000774B07F0E5FB01D2DFF8D881404607F0ED
:103AC000B4FB06460022744B07F0C2FB01D2DFF8BC
:103AD000CC81734840F82580724A02EB8502116858
:103AE000024652F8250007F0FFFB1CD86C4850F83E
:103AF00025006D4941F8250001206C49485515B154
:103B0000012D0ED106E05648806B40F480105449D8
:103B1000886307E05248806B40F400105049886386
:103B200000E000BF1CE05E4850F825005E4941F807
:103B3000250000205D49485515B1012D0ED106E044
:103B40004748C06B40F480104549C86307E04448CB
:103B5000C06B40F400104249C86300E000BF00BFE2
:103B6000BDE8FC8710B1012818D10BE03C4AD269AE
:103B700042F460223A4BDA611A46926942EA4142C3
:103B80009A610CE0364AD26942F4E002344BDA61C1
:103B90001A46926942EA01529A6100E000BF00BFF2
:103BA00070472DE9FC5F04460D4600BF2046FFF735
:103BB000A4FE1FFA80F9B9F1280F11DA072D24DAD3
:103BC000681CC5B207F062FF834629462046FFF70E
:103BD000C9FF584607F05EFF0A2006F0ABFAE5E79A
:103BE000B9F57A7F11DD002D0FDD681EC5B207F033
:103BF0004DFF834629462046FFF7B4FF584607F09D
:103C000049FF0A2006F096FAD0E7484607F085FA01
:103C100082462448093800EB44011130005D085CFD
:103C200001284BD100260EE0504607F0FEFA204A4C
:103C3000204BCDE9000107F086F9074607F038FB75
:103C40008246701C86B217480D3800EB44011530CF
:103C5000005D0856B0422FE0C4C00F4000C00240D3
:103C600000800920004003402802001040420F005D
:103C700000FFFF0000004844000020410000A04277
:103C80000000894000002440000080BF0000544034
:103C900000003E400000F041000049C0000048C262
:103CA00024000010F30300102C0000103C00001052
:103CB000959C137B685FF03FB6DC21E0154800EB74
:103CC00044011130005D085CD0B900260EE050467A
:103CD00007F0ABFA0746104A104B07F034F9CDE96C
:103CE000000107F0E5FA8246701C86B20948001F01
:103CF00000EB44011530005D0856401EB042E6DC82
:103D0000524629462046FFF72CFE05480555BDE8DA
:103D1000FC9F0000EA030010EB1D6E878645EF3F15
:103D2000200000100022FE4B1A60FE4A1168FE4A75
:103D3000B1FBF2F2501E4FF40012C2F89400FB4A9D
:103D4000B1FBF2F2C2EB02124FF47A73B2FBF3F260
:103D5000501CF64AB1FBF2F202EBC203C3EB821233
:103D60004FF47A73B2FBF3F2521C40EA0220EF4A9E
:103D7000B1FBF2F2C2EBC20202EB8202B2FBF3F23F
:103D8000521C40EA0240E64A083A106070472DE9AA
:103D9000F043079F1546164694464FF0A058DFF8AB
:103DA0009093C9F80080012B06D100F00108B8F10A
:103DB000000F0AD000BFFEE7022B06D100F0030877
:103DC000B8F1000F01D000BFFEE700F03F084FF44C
:103DD0000019C9F8848000248DE07BB94FF00308F6
:103DE0004FF40019C9F8808095F80080C9F88880E0
:103DF0006D1C00F101081FFA88F021E0012B0FD1A2
:103E00004FF004084FF40019C9F88080B6F800801C
:103E1000C9F88880B61C00F102081FFA88F00FE08C
:103E20004FF005084FF40019C9F88080DCF80080D5
:103E3000C9F888800CF1040C00F104081FFA88F01E
:103E400000BFDFF8EC82A8F10808D8F80080C8F3BA
:103E50008068B8F1000FF4D04FF08068DFF8D0929E
:103E6000C9F80080402802DB4FF0010801E04FF064
:103E70000008A7F10109A14502D14FF0010901E0B5
:103E80004FF0000948EA0908B8F1000F23D04FF0BD
:103E90008058DFF89C92C9F800804FEA81684FEAA9
:103EA00018584FF40019C9F884804FF00608C9F873
:103EB000808000BFDFF87882A8F10808D8F8008079
:103EC000C8F30078B8F1000FF4D04FF08058DFF855
:103ED0006092C9F8008040280CDB002001F1010845
:103EE0001FFA88F180464FF40019C9F884803E29F2
:103EF00000DD0021641CBC42FFF46FAFBDE8F0831D
:103F00002DE9F8430746884691468A48381A84B214
:103F10002546E21704EB926291112646E21704EB64
:103F200092629211A4EB821290B200234246CDF825
:103F30000090FFF72CFFBDE8F8832DE9F841064615
:103F400088467C48301A84B22546E21704EB926218
:103F500091112746E21704EB92629211A4EB8212B0
:103F600090B200233246CDF80080FFF710FFBDE885
:103F7000F8812DE9F043DDF81CC0144616461746BB
:103F80004FF0A058DFF8A891C9F8008001F03F0970
:103F9000804669F39F184FF40019C9F8848023B94B
:103FA0004FF00808C9F880801BE0012B0CD14FF0BE
:103FB00009084FF40019C9F8808000F00108B8F131
:103FC000000F0ED000BFFEE74FF00A084FF40019B3
:103FD000C9F8808000F00308B8F1000F01D000BFDD
:103FE000FEE700255DE05BB94FF40018D8F88C803F
:103FF00084F80080641C00F101081FFA88F018E0C2
:10400000012B0BD14FF40018D8F88C80A6F8008053
:10401000B61C00F102081FFA88F00AE04FF40018FD
:10402000D8F88C80C7F800803F1D00F104081FFA03
:1040300088F000BFDFF8F880A8F10808D8F8008001
:10404000C8F38068B8F1000FF4D04FF08068DFF853
:10405000E090C9F80080402822DB002001F101082F
:104060001FFA88F101F03F09804669F39F184FF469
:104070000019C9F8848023B94FF00808C9F8808076
:104080000EE0012B06D14FF009084FF40019C9F8D2
:10409000808005E04FF00A084FF40019C9F88080CD
:1040A0006D1C65459FD3BDE8F0832DE9F8410446BA
:1040B0000F4690462546E21704EB9262C2F38F1139
:1040C0002646E21704EB92629211A4EB821290B2A0
:1040D00000233A46CDF80080FFF74BFFBDE8F8819A
:1040E00003220F4B183B1A6000210CE000220C4BFE
:1040F000103B1A6000BF0E4A083A1268C2F3806291
:10410000002AF8D0491C4029F0D34FF08052084BC8
:104110001A608206120D024B143B1A6006220BE055
:104120009800200024020010D8B8050040420F007B
:10413000E80F2000390300104FF40013C3F880206B
:1041400000BF084A1268C2F30072002AF9D0704713
:10415000012803D10121044A116002E00021024A32
:1041600011607047E00F2000980020007047014662
:104170000868401C086040F6B8320868904202DDCA
:104180004FF0FF3070470120FCE72DE9F74F82B078
:10419000074689464FF0000800200190834600261C
:1041A0003C46BA4609F0FF083CE001A802F093FB48
:1041B0000546202D21DB7F2D1FDC0020019020787B
:1041C000A8420BD1641C761C207800B92CE0F4B90D
:1041D00000200190401E05B0BDE8F08F5446002637
:1041E0002078A84213D1641C761C207800B91BE00B
:1041F0006CB900200190401EEDE70BF1010B41F27C
:104200008830834503DB4FF0000BFBF765FF464525
:1042100000DB09E001990498814203DD0020019050
:10422000401ED8E74645C0DB00BF464501D101200E
:10423000D1E70020CFE72DE9F84305468846174629
:104240000020009015B9401EBDE8F88300200090C2
:1042500005E00020009968540098401C0090A8F1E7
:10426000010000998842F4DC00200090002615E04F
:10427000684602F030FB04460098B8420EDA202C63
:104280000CDB7F2C0ADC00200090A8F10100B0427A
:1042900002DC4FF0FF30D7E7AC55761C0098B842EF
:1042A000E6DB0120D0E72DE9F05F80460C4615469D
:1042B0001E46DDF8289000274FF0010B404602F023
:1042C000CDFA324629462046FFF75FFF82460EE0D0
:1042D0007F1C4F4502DD4FF0FF3B0BE0404602F0F4
:1042E000BDFA324629462046FFF74FFF8246BAF113
:1042F000000FEDDB00BF5846BDE8F09FF8B505465E
:104300000024284602F02FFAF848006A40F4000022
:10431000F64908620846806B40F40000886341F269
:10432000883005F007FFF24802F098FA642005F0A3
:1043300001FF00BF41F288320421EEA0FFF725FF04
:10434000064641F288320321ECA0FFF71EFF064625
:10435000002E03DA641C042C00DAEBE7642005F07D
:10436000E9FE04204FF4FA630222E5A10090E5483B
:10437000FFF799FF04204FF4FA630222E0A10090B6
:10438000E1A0FFF790FF0A204FF4FA630222DCA1BC
:104390000090E148FFF787FF04204FF4FA63022200
:1043A000D7A10090DDA0FFF77EFF41F2883005F035
:1043B000C1FE3020DF49C8703821DE480171392143
:1043C0004171312181713621C17138210172312051
:1043D000D9490870487030208870C870087144202E
:1043E0004871392088713120C87136200872382010
:1043F000487230208875C875087638204876302095
:104400008876C87600200877F8BD10B540F6B83039
:1044100005F090FEC94802F021FA4FF4FA6005F069
:1044200089FE10BDF0B593B03C2104A806F0FBFA5C
:10443000002700BF0024C2A002F010FA40F6B832F4
:104440000621C2A0FFF7A1FE0646002E36DC7F1C27
:10445000052F2ED30027A548C06B40F40000A349C8
:10446000C8634FF4FA6005F065FEA048806B40F425
:1044700000009E49886302E0012005F05BFE9B4836
:10448000406DC0F300300028F6D14FF47A7005F08B
:1044900051FE9648C06B40F400009449C8634FF445
:1044A000FA6005F047FE9148806B40F400008F49A8
:1044B00088634FF47A7005F03DFEBBE700244FF4AB
:1044C0007A72322104A8FFF7B6FEA2A104A806F072
:1044D000C1FA051E3CD0ED1C00BF05E015F8010B2C
:1044E0000DF80400601C84B20B2CF7DB46208DF81D
:1044F0000B0000208DF80C0097A0FFF72AF9684602
:10450000FFF727F90A20FFF7F7F8002408E01DF865
:1045100014206000C01D8749C91C0A54601C84B265
:10452000062CF4DB00240AE06000401C1DF800208B
:104530006000801D7F49C91C0A54601C84B2062C8F
:10454000F2DB00217B4841751321C01CFFF7F5FC0D
:1045500013B0F0BDF0B58FB03C21684606F063FAA9
:10456000002700BF002580A002F078F940F6B8329D
:10457000042180A0FFF709FE0646002E36DC7F1CD2
:10458000052F2ED300275948C06B40F4000057492F
:10459000C8634FF4FA6005F0CDFD5448806B40F4D9
:1045A00000005249886302E0012005F0C3FD4F4836
:1045B000406DC0F300300028F6D14FF47A7005F05A
:1045C000B9FD4A48C06B40F400004849C8634FF445
:1045D000FA6005F0AFFD4548806B40F400004349A8
:1045E00088634FF47A7005F0A5FDBBE700254FF412
:1045F0007A7232216846FFF71EFE6C46207830281A
:1046000020DB207839281DDC00BF06E021784948EE
:104610009D304155641C681C85B20F2DF6DB0021CE
:10462000444880F8AC1055A0FFF793F841489D30FE
:10463000FFF78FF80A20FFF75FF810213D489D3003
:10464000FFF77BFC0FB0F0BD2DE9F04186B080464E
:104650000E4606F11E0000EBD071C1F34F07632F29
:1046600005DD3A4647A1684607F060FA04E03A469D
:1046700048A1684607F05AFA0025B6E01A2002F071
:10468000C0F86420FEF7B7FE1E4802F0E7F80A20E3
:10469000FEF7B1FE684602F0E1F80A20FEF7ABFE35
:1046A0002448C01C02F0DAF805EB4501C1EB4512C5
:1046B00020491631501802F0D1F8404602F0CEF8E9
:1046C0000A20FEF798FE1A2002F09BF80A20FEF757
:1046D00092FE00BF00246FE0601C84B241F294108F
:1046E00084425FD11A2002F08CF865E00080092036
:1046F0004400001043616C6C00000000534D5300F7
:104700004F4B00004900001041542B434D4744419A
:104710003D360D0A000000007C00001041542B4380
:104720004D4744413D2244454C20414C4C220D0A0A
:104730000000000039030010A4020010DA0000108D
:1047400041542B435343413F0D0A00002B43534335
:10475000413A00002B383600534D532043454E5408
:1047600045523A200000000041542B47534E0D0A99
:10477000000000002B47534E0000000047554944FD
:104780003A20000041542B434D47533D2533640DDF
:104790000000000041542B434D47533D2532640D2A
:1047A0000000000042F22830844205D1F748FEF7AD
:1047B000D0FF06B0BDE8F08102F075F88DF810006A
:1047C0002B2889D1012405E002F06DF804A90855D1
:1047D000601C84B2062CF7DBEDA104A806F03AF9C0
:1047E00000B977E700BF681CC5B2EB4890F87400C9
:1047F000A8423FF743AF00BFDBE72DE9FF47804604
:104800000D46164606F11E0000EBD071C1F34F07AE
:10481000632F06DD3A46AFF29401684607F086F949
:1048200005E03A46AFF29401684607F07FF91A2096
:1048300001F0E7FF6420FEF7DEFDD84802F00EF835
:104840000A20FEF7D8FD684602F008F80A20FEF7B5
:10485000D2FDD148C01C02F001F8404601F0FEFF35
:10486000284601F0FBFF0A20FEF7C5FD1A2001F0E3
:10487000C8FF0A20FEF7BFFD002412E0601C84B2CE
:1048800041F29410844203D11A2001F0BAFF08E0EB
:1048900042F22830844204DBBC48FEF75AFFBDE8F0
:1048A000FF8702F000F881462B28E7D100BFF6E72A
:1048B000F0B595B020210BA806F0B5F8B8A1C44812
:1048C00007F034F9C3484069C0F3C010C24908700A
:1048D0000846007820B9C1A1BD4806F0AFF803E052
:1048E000C5A1BB4806F0AAF8002477E0AA49BA316E
:1048F00001EB84010868002106F000FD0FD842207A
:104900008DF84C00A449BA3101EB84010868C14913
:1049100006F002FA064606F03CFC85B212E044209E
:104920008DF84C009C48BA3000EB840001680020F0
:1049300006F0ECF90746B74906F0EEF9064606F030
:1049400028FC85B24FF47A7095FBF0F0C0B28DF878
:104950004D004FF47A7095FBF0F100FB115064218B
:1049600090FBF1F0C0B28DF84E00642095FBF0F1A1
:1049700000FB11500A2190FBF1F0C0B28DF84F00FE
:104980000A2095FBF0F100FB1150C0B28DF85000E9
:1049900000208DF851009DF850209DF84F009DF8A3
:1049A0004E109DF84D30CDE90031CDE902029DF861
:1049B0004C3004EB840101EB8411974A8818621C87
:1049C000964907F0B3F804EB840000EB8410924A98
:1049D00081187F4806F032F8601CC4B2022C85DBD7
:1049E000CC227B498E48FFF708FF6420FEF703FDC9
:1049F00014220BA98A48FFF700FF8AA1744807F028
:104A000095F8002431E06448C230005D98B9C4EBE9
:104A1000C401C1EB8411844A8818621C83A107F089
:104A200085F8C4EBC400C0EB84107F4A8118684845
:104A300006F004F817E05848C230005D012812D192
:104A4000C4EBC401C1EB8411774A8818621C86A1AB
:104A500007F06CF8C4EBC400C0EB8410724A8118F4
:104A60005B4805F0EBFF601CC4B2022CCBDB0024DA
:104A70007FE18C48005D002871D18B4951F82400FA
:104A8000002106F03BFC0DD842208DF84C008749F0
:104A900051F824005F4906F03FF9064606F079FB1D
:104AA00085B210E044208DF84C007F4850F8241067
:104AB000002006F02BF90746564906F02DF9064668
:104AC00006F067FB85B24FF47A7095FBF0F0C0B248
:104AD0008DF84D004FF47A7095FBF0F100FB11500A
:104AE000642190FBF1F0C0B28DF84E00642095FB7C
:104AF000F0F100FB11500A2190FBF1F0C0B28DF8EB
:104B00004F000A2095FBF0F100FB1150C0B28DF868
:104B1000500000208DF851009DF850009DF84F1076
:104B20009DF84E209DF84D30CDE90032CDE90210C0
:104B30009DF84C3004EB041101EB81015C4A8818AC
:104B4000621C5C4906F0F2FF04EB041000EB8000ED
:104B5000574A81181E4805F071FF08E1FFE75249E6
:104B600051F82400002106F0C9FB0DD842208DF831
:104B70004C004D4951F82400264906F0CDF8064670
:104B800006F007FB85B2A8E096E00000FC010010EB
:104B90002B434D47533A00003903001049000010E1
:104BA0003636384636463445463637323438363768
:104BB00032433030353630303332303032453030B9
:104BC0003331303033333030304430303041000016
:104BD0007797001000800920020000103735333528
:104BE0003645393036423633354533383030304447
:104BF000303030410000000037323335364539302F
:104C0000354630323545333830303044303030413D
:104C1000000000000000C8425C950010C0D70000F2
:104C2000A4020010384300004894001030303532A0
:104C300030303325316435444535344635433643C9
:104C40004532393537463030333130303333303018
:104C50003331303033303030364530303644303018
:104C60003044303030410000303035323030332580
:104C7000316435444535344635433643453239355C
:104C800037463030333130303335303033353030F3
:104C900033303030364530303644303030443030C8
:104CA000304100003C0000102C00001024000010D7
:104CB000E695001078D8000044208DF84C00FC48A0
:104CC00050F82410002006F021F80746F94906F0B4
:104CD00023F8064606F05DFA85B24FF47A7095FB2C
:104CE000F0F0C0B28DF84D004FF47A7095FBF0F102
:104CF00000FB1150642190FBF1F0C0B28DF84E0022
:104D0000642095FBF0F100FB11500A2190FBF1F0BB
:104D1000C0B28DF84F000A2095FBF0F100FB115056
:104D2000C0B28DF8500000208DF851009DF8501051
:104D30009DF84F009DF84E209DF84D30CDE9003292
:104D4000CDE902019DF84C3004EB041101EB810127
:104D5000D94A8818621CD94906F0E8FE04EB041011
:104D600000EB8000D44A8118D54805F067FE601C2E
:104D7000C4B2022CFFF67DAE4FF48C72D049D148FC
:104D8000FFF73BFD6420FEF736FB14220BA9CD484C
:104D9000FFF733FDCC4890F874004C2100FB01F67E
:104DA00006EBD6704210C9A1C54806F0BFFE00242C
:104DB00071E004EB840000EBC401C3487530084483
:104DC000807A04EB840101EBC402BF4975311144C0
:104DD000497A04EB840202EBC403BB4A75321A44DD
:104DE000127A04EB840303EBC406B74B75333344E8
:104DF000DB79CDE90632CDE9081004EB840000EB45
:104E0000C401B14875300844817904EB840000EB9B
:104E1000C402AD4875301044427904EB840000EBC5
:104E2000C403A94875301844007904EB840303EBEC
:104E3000C406A54B75333344DB78CDE90230CDE9A8
:104E4000042104EB840000EBC4019F487530084442
:104E5000807804EB840101EBC4029B497531114455
:104E60004978CDE9001004EB840101EBC4029649B6
:104E700075318B5C4D216143954A8818621C9549B8
:104E800006F054FE4D206043914A81188C4805F08D
:104E9000D5FD601CC4B28C4890F87400A04288DC38
:104EA000894890F874004C2100FB01F28449854840
:104EB000FFF7A3FC15B0F0BD2DE9F043DDB002E033
:104EC000012005F037F9844800780128F8D082489D
:104ED0000078002879D101207F4908700A20FEF768
:104EE0008AFA7E4801F0BAFC0A20FEF784FA7C4870
:104EF00001F0B4FC0A20FEF77EFA7A4801F0AEFC1D
:104F000041F288324FF496710EA8FFF794F976A11A
:104F10000EA805F09FFD28B900206F4908705DB00C
:104F2000BDE8F083AFF2D4710EA805F093FD051E25
:104F300002D169490870F2E7002405E015F8010B79
:104F400059A90855601C84B20E2CF7DB46208DF859
:104F5000720100208DF87301002409E06000C01C7C
:104F600059A9095C60000B30564A1154601C84B288
:104F7000062CF3DB002409E06000001D59A9095C40
:104F800060000A304F4A1154601C84B2062CF3DBD7
:104F90000024574D57A10EA805F05CFD074656A109
:104FA0000EA805F057FD8046384605F07BFD81468A
:104FB000404605F077FDA9EB0000461C3246394615
:104FC000284605F059FD00BF14E059E03E486D3019
:104FD000015D474A601C105C814209D0102247499C
:104FE0003848FFF70AFC00203B490870032096E789
:104FF000601C84B2062CE9DB41A13D48C01D05F0D0
:1050000029FD68B1FFF754FCAFF6F00001F026FC73
:105010006420FEF7F0F900202F49087001207EE798
:10502000002409E03249E01D085C01A90855601C14
:1050300084B2472C00DD04E02D49E01D085C002807
:10504000F0D100BF002101AA601C11541E488278D3
:1050500001AB2DA1264806F069FD01202D490870FD
:1050600000201D4908702248FBF7A4FA00201A49C5
:105070000870AFF6581001F0F1FB6420FEF7BBF9A1
:1050800000204CE72449097800296FD12349496958
:10509000C1F3C011224A117011460978214A1278D1
:1050A000914243D00121204A11701B4A117040E007
:1050B0002C0000100000C842E695001014D8000033
:1050C00077970010A4020010390300102532580011
:1050D00090960010DCD800000D0200107C0000103B
:1050E0006C000010550000102B434D474C3A000057
:1050F0000C9000103C0000003E000000A8010010D1
:105100005F535F3F3E0000003C4250253032752522
:1051100073000000010000100C0200100080092044
:1051200002000010030000100E0200100021FE4AD1
:105130001170FE490978FE4A1170002014E0FD4903
:10514000095CFD4A125C914205D00121FB4A1170B5
:10515000FB4A117002E00021F94A1170F649095C1E
:10516000F44A1154411CC8B20228E8DB70472DE90B
:10517000FE4F00240FE0F348005D28B140F20E60BE
:1051800001A941F8240004E040F21E5001A941F8B1
:105190002400601CC4B2022CEDDBFEF748F8814607
:1051A000E9A0FEF72DF806463246E8A14846FDF78D
:1051B00022FFE4482538FEF723F806463246E5A1EB
:1051C0004846FDF718FFE4A0FEF71AF806463246F7
:1051D000E2A14846FDF70FFFFEF720F88046424661
:1051E000DFA14846FDF707FFFEF721F88246064695
:1051F00031464046FDF7EAFEDBA0FEF701F8064621
:105200003246DAA15046FDF7F6FE019805F08AFF16
:105210000646FDF7DFFF83465A46D6A15046FDF706
:10522000EAFED749086806F000F80646FDF7D2FF07
:1052300083465A46D3A15046FDF7DDFEFDF7F7FF42
:105240000646314600904046FDF7C0FECFA0FDF770
:10525000D7FF06463246C5A10098FDF7CCFE02985E
:1052600005F060FF0646FDF7B5FF83465A46C1A12B
:105270000098FDF7C0FEC249486805F0D6FF064613
:10528000FDF7A8FF83465A46BEA10098FDF7B3FE7E
:105290004846FDF757FE05464846FCF75DFF2846A1
:1052A000BDE8FE8F2DE9F047B9484069C0F3C01052
:1052B0009E490870FDF7BBFF8046A3A0FDF7A0FF45
:1052C00004462246A1A14046FDF795FE9D4825389B
:1052D000FDF796FF044622469EA14046FDF78BFE51
:1052E000ACA0FDF78DFF044622469CA14046FDF789
:1052F00082FEFDF79CFF81460446224698A1404667
:10530000FDF779FEA5A0FDF77BFF04462246A5A187
:105310004846FDF770FE8549097809B9012100E08A
:105320000021084605F0FEFE0446FDF753FF064641
:1053300032469EA14846FDF75EFE00200146FDF77D
:1053400049FF044622469BA14846FDF754FE4046CD
:10535000FDF7F8FD07464046FCF7FEFE3846BDE87F
:10536000F0872DE9F043A9B00026744800780128A1
:105370007ED104A8FCF796FD7248C23890F89C00D4
:10538000002876D08CA18D4806F0D0FB67480078C5
:1053900020B98BA1894805F051FB03E08DA1874816
:1053A00005F04CFB002459E1601CC0B28DF83800B8
:1053B0006048005D002875D18B4951F82400002118
:1053C00005F09CFF0DD842208DF83900864951F830
:1053D0002400864905F0A0FC074605F0DAFE85B2F8
:1053E00010E044208DF839007F4850F82410002048
:1053F00005F08CFC81467D4905F08EFC074605F0E2
:10540000C8FE85B24FF47A7095FBF0F0C0B28DF80B
:105410003A004FF47A7095FBF0F100FB11506421D3
:1054200090FBF1F0C0B28DF83B00642095FBF0F1E9
:1054300000FB11500A2190FBF1F0C0B28DF83C0046
:105440000A2095FBF0F100FB1150C0B28DF83D0031
:1054500000208DF83E009DF83D009DF83C109DF821
:105460003B209DF83A30CDE90032CDE9021001E051
:10547000D7E1FAE09DF839309DF8382004EB0411AB
:1054800001EB84115A4FC8195A4906F04FFB04EB3F
:10549000041000EB84103A468118484805F0CEFA13
:1054A000DAE0FFE7504951F82400002105F026FF1B
:1054B0000DD842208DF839004B4951F824004B4952
:1054C00005F02AFC074605F064FE85B210E0442092
:1054D0008DF83900444850F82410002005F016FCDF
:1054E0008146424905F018FC074605F052FE85B298
:1054F0004FF47A7095FBF0F0C0B28DF83A004FF49B
:105500007A7095FBF0F100FB1150642190FBF1F0F3
:10551000C0B28DF83B00642095FBF0F100FB115008
:105520000A2190FBF1F067E00E020010020000106B
:1055300003000010040000103C0000100C020010DA
:105540000F020010FB03001031000000707665723E
:10555000000000007569640062610000636D640012
:105560006461746100000000523100006E616D657D
:1055700000000000776176656C656E6774680000F6
:1055800024000010706F77657276000052320000C0
:1055900000800920696E666F00000000322E3133F2
:1055A0000000000076657273696F6E00706F77653A
:1055B0007200000067736D003538000077970010A7
:1055C000373533353645393036423633354533385D
:1055D0000000000037353335364539303546303236
:1055E00035453338000000002C0000100000C84290
:1055F000BA940010A4D90000C0B28DF83C000A2073
:1056000095FBF0F100FB1150C0B28DF83D00002079
:105610008DF83E009DF83D009DF83C109DF83B2024
:105620009DF83A30CDE90032CDE902109DF83930CD
:105630009DF8382004EB041101EB8411FE4FC819CA
:10564000FE4906F073FA04EB041000EB84103A46AE
:105650008118FB4805F0F2F9601CC4B2022CFFF679
:10566000A3AEB021F648FEF7EFFFF6480078002819
:1056700076D10120F3490870F3A001F0EFF800267D
:1056800000BF01F010F98DF84000701C86B244F69E
:105690002060864208DBF0A0FEF75BF80020E949B5
:1056A000087029B0BDE8F0839DF840003A28E8D1A1
:1056B000012405E001F0F7F810A90855601CC4B2F8
:1056C000642CF7DBEAA110A805F0C4F978B9EA4820
:1056D00001F0C4F8642004F02DFDE84801F0BEF8A4
:1056E000E7A0FEF736F80020D6490870D9E7E94868
:1056F00001F0B4F8642004F01DFDE74801F0AEF8B5
:1057000000BF01F0D0F88DF840004F28F9D10124F6
:1057100005E001F0C8F810A90855601CC4B2022CBD
:10572000F7DBDEA110A805F095F9002865D0DC486C
:1057300001F094F8642004F0FDFCDA4801F08EF8E2
:10574000002600BF01F0AFF88DF84000701C86B253
:1057500044F6206086420BDBC84801F07FF800E089
:105760005AE0D1A0FDF7F5FF0020B649087098E790
:105770009DF840004E28E5D10026012405E001F007
:1057800092F810A90855601CC4B20F2CF7DBCBA10E
:1057900010A805F05FF948B3CB48007818B1FFF7BF
:1057A00081FD804605E0C948007810B1FFF7DFFCB5
:1057B0008046C74801F052F8642004F0BBFC404624
:1057C00001F04CF80A20FDF716FE1A2001F019F836
:1057D00041F2883004F0AEFCA74801F03FF86420A5
:1057E00004F0A8FCA54801F039F812E0A34801F044
:1057F00035F8B8A0FDF7ADFF0BE09F4801F02EF89B
:10580000642004F097FC9D4801F028F89CA0FDF767
:10581000A0FF00208B4908700020B2490870894918
:10582000087000BF3DE72DE9FE4F00240FE0AE48B1
:10583000005D28B140F20E6001A941F8240004E0A7
:1058400040F21E5001A941F82400601CC4B2022C91
:10585000EDDBFDF7ECFC8146AFF21430FDF7D0FC38
:1058600006463246AFF21C314846FDF7C4FB9E485F
:105870002538FDF7C5FC06463246AFF228314846CA
:10588000FDF7B9FB99A0FDF7BBFC06463246AFF227
:1058900034314846FDF7AFFBFDF7C0FC8046424679
:1058A000AFF244314846FDF7A6FBFDF7C0FC824647
:1058B000064631464046FDF789FBAFF25430FDF70E
:1058C0009FFC06463246AFF25C315046FDF793FB33
:1058D000019805F027FC0646FDF77CFC83465A46F6
:1058E000AFF270315046FDF786FB7F49C239D1F8DF
:1058F000BA0005F09AFC0646FDF76CFC83465A4652
:10590000AFF280315046FDF776FBFDF790FC06467E
:10591000314600904046FDF759FBAFF29030FDF75D
:105920006FFC06463246AFF2BC310098FDF763FBD0
:10593000029805F0F7FB0646FDF74CFC83465A46F5
:10594000AFF2D0310098FDF756FB6749C239D1F864
:10595000BE0005F06AFC0646FDF73CFC83465A464D
:10596000AFF2E0310098FDF746FB4846FDF7EAFA52
:1059700005464846FCF7F0FB2846BDE8FE8F2DE9BA
:10598000FE4F00240FE05848005D28B140F20E6041
:1059900001A941F8240004E040F21E5001A941F899
:1059A0002400601CC4B2022CEDDBFDF740FC8146F4
:1059B000AFF26C40FDF724FC06463246AFF274416C
:1059C0004846FDF718FB48482538FDF719FC064600
:1059D0003246AFF280414846FDF70DFB44A0FDF78B
:1059E0000FFC06463246AFF28C414846FDF703FBFA
:1059F000FDF714FC80464246AFF29C414846FDF755
:105A0000FAFAFDF714FC8246064631464046FDF799
:105A1000DDFAAFF2AC40FDF7F3FB06463246AFF2DB
:105A2000B4415046FDF7E7FA2F49C239D1F8BA0020
:105A300005F0FBFB06465DE0BA94001044D9000077
:105A4000779700100D02001041542B4349505354D6
:105A5000415455530D0A000047534D2F54435020D5
:105A6000535441545553204552524F520A0000009E
:105A7000494E495449414C00F60000100401001001
:105A800047534D2F54435020494E495420464149D5
:105A90004C0A0000880000109A0000104F4B0000D4
:105AA000A5000010B0000010434F4E4E4543542057
:105AB00054494D454F55540A000000004E4E454391
:105AC00054204F4B000000000E0200100F02001087
:105AD000E9000010434F4E4E454354204641494C87
